:1004340050617373776F72643A004F4B2020200031
:060444006572726F720088
:10018C001204757BFF7A0479347D017F011203D64A
:10019C001200038F1CE51C60F7D3940A5041C3E591
:1001AC00199404E51894005028AE1AAF1B7C007DFE
:1001BC000A1202918E1A8F1BE51C75F00A84E5F069
:1001CC00251BF51BE4351AF51A0519E519700205FE
:1001DC0018750C04AB1BAA1A7D017F02120417E5DB
:1001EC001CB40B17E4F51AF51BF518F519750C046E
:1001FC00AB1BAA1A7D017F02120417E51CB40C90EC
:10020C00E51BB4D22CE51AB404277BFF7A04793EA3
:10021C007D0A7F011203D6E4F51AF51BF518F519C2
:10022C00750C04AB1BAA1A7D017F02120417020184
:10023C009C7BFF7A0479447D0A7F011203D6E4F596
:10024C001AF51BF518F519750C04AB1BAA1A7D01D0
:08025C007F0212041702019C4D
:10046000EF1FAC0670011E4C600A7D027CEFDCFEC3
:04047000DDFC80EC43
:010474002265
:06048900C2A58F80D2A77E
:08048F007F027EEFDEFEDFFCC0
:010497002242
:0A04A400C2A6120489C2A702048F49
:1003F900CFCDCFCECCCE1202A37C007D0A1202A3B0
:04040900ED2430FFAF
:0A040D00D2A6120489C2A702048FD0
:10044A00AE07BE0104ED148006BE0209ED243F4446
:06045A0080FF1204A42241
:100475007F381204A47F0C1204A47F061204A47F03
:04048500010204A4C8
:0A04AE00AC0312044AAF0402040D6F
:0603D6008B088A09890A68
:1003DC0012044AE4FDAB08AA09A90A8D82758300B0
:0C03EC00120264FF600612040D0D80E98F
:0103F80022E2
:0C03A3007F0AEA24FFFDE434FFFC7E002A
:0803AF008E0D8F0E8C0F8D10D6
:1003B7007F017E00E4FBEBC39510E50F6480F874C2
:0E03C7008098500AAC0DAD0E1202910B80E82A
:0103D5002205
:040417008A0A8B0BB7
:10041B0012044AAA0CEAD39400400D1203A3AC0AAF
:08042B00AD0B1203F91A80ED7C
:0104330022A6
:1002F80012044AC3EA64809480400B7F2B12040DD9
:100308008A168B17800E7F2D12040DC3E49BF517F8
:10031800E49AF516AA15EAD39400400D1203A3AC8B
:0903280016AD171203F91A80ED5D
:0103310022A9
:040332008A1F8B2073
:1003360012044AAA21EAD3940040297F101203A589
:10034600AC1FAD20CFCDCFCECCCE1202A3EF540F33
:10035600FEC3940AEE5004243080022437FF1204B0
:040366000D1A80D11B
:01036A002270
:04036B008A248B2530
:10036F0012044AAA26EAD394004028EA24FFFDE4A7
:10037F0034FFFC7F027E001203AFAC24AD25CFCD3E
:10038F00CFCECCCE1202A3EF54012430FF12040DB6
:03039F001A80D2EF
:0103A2002238
:10000300E4F5087590FFC2932097137F14FE120442
:10001300603097FD7F147E001204607508012096FE
:10002300147F147E001204603096FD7F147E00124C
:1000330004607508052095147F147E001204603057
:1000430095FD7F147E001204607508092094147FC7
:10005300147E001204603094FD7F147E001204604D
:1000630075080D7590FFC2922097147F147E0012BD
:1000730004603097FD7F147E00120460750802202F
:1000830096147F147E001204603096FD7F147E0068
:100093001204607508062095147F147E0012046014
:1000A3003095FD7F147E0012046075080A209414B5
:1000B3007F147E001204603094FD7F147E001204CE
:1000C3006075080E7590FFC2912097147F147E000F
:1000D3001204603097FD7F147E00120460750803DC
:1000E3002096147F147E001204603096FD7F147EE8
:1000F300001204607508072095147F147E00120413
:10010300603095FD7F147E0012046075080B209407
:10011300147F147E001204603094FD7F147E00125D
:10012300046075080F7590FFC2902097147F147EAA
:10013300001204603097FD7F147E0012046075087E
:10014300042096147F147E001204603096FD7F1401
:100153007E001204607508082095147F147E001237
:1001630004603095FD7F147E0012046075080C2036
:1001730094147F147E001204603094FD7F147E007B
:08018300120460750810AF08BA
:01018B002251
:030000000204985F
:0C049800787FE4F6D8FD75812602018C07
:10026400BB010CE58229F582E5833AF583E022504F
:1002740006E92582F8E622BBFE06E92582F8E22299
:0D028400E58229F582E5833AF583E49322B3
:10029100EF8DF0A4A8F0CF8CF0A428CE8DF0A42E81
:0202A100FE223B
:1002A300BC000BBE0029EF8DF084FFADF022E4CC3F
:1002B300F875F008EF2FFFEE33FEEC33FCEE9DEC08
:1002C300984005FCEE9DFE0FD5F0E9E4CEFD22ED4E
:1002D300F8F5F0EE8420D21CFEADF075F008EF2F98
:1002E300FFED33FD4007985006D5F0F222C398FD89
:0502F3000FD5F0EA2226
:00000001FF
