:10019800E4F508F5091202080509E50970020508E1
:0F01A800750E03FBAA087D017F011201D580E6C9
:06021C00C2A58F80D2A7ED
:080222007F027EEFDEFEDFFC2F
:01022A0022B1
:0A023700C2A612021CC2A702022296
:1001B700CFCDCFCECCCE1200427C007D0A120042BA
:0401C700ED2430FFF4
:0A01CB00D2A612021CC2A7020222F3
:1001F200AE07BE0104ED148006BE0209ED243F44A1
:0602020080FF120237220A
:100208007F381202377F0C1202377F061202377FBF
:0402180001020237A6
:0A024100AC031201F2AF040201CB7E
:060175008B248A25892677
:10017B001201F2E4FDAB24AA25A9268D827583001A
:0C018B00120003FF60061201CB0D80E99A
:010197002245
:0C0142007F0AEA24FFFDE434FFFC7E008D
:08014E008E0F8F108C118D1231
:100156007F017E00E4FBEBC39512E5116480F87421
:0E0166008098500AAC0FAD101200300B80E8EC
:010174002268
:0401D5008A0C8B0DF8
:1001D9001201F2AA0EEAD39400400D120142AC0CAE
:0801E900AD0D1201B71A80ED03
:0101F10022EB
:100097001201F2C3EA64809480400B7F2B1201CBDC
:1000A7008A188B19800E7F2D1201CBC3E49BF5199B
:1000B700E49AF518AA17EAD39400400D120142AC4E
:0900C70018AD191201B71A80ED01
:0100D000220D
:0400D1008A1C8B1DDD
:1000D5001201F2AA1EEAD3940040297F10120144AE
:1000E500AC1CAD1DCFCDCFCECCCE120042EF540F00
:1000F500FEC3940AEE5004243080022437FF120117
:04010500CB1A80D1C0
:0101090022D3
:04010A008A218B2299
:10010E001201F2AA23EAD394004028EA24FFFDE468
:10011E0034FFFC7F027E0012014EAC21AD22CFCD0A
:10012E00CFCECCCE120042EF54012430FF1201CBC1
:03013E001A80D252
:01014100229B
:0300000002022BCE
:0C022B00787FE4F6D8FD7581260201986A
:10000300BB010CE58229F582E5833AF583E02250B2
:1000130006E92582F8E622BBFE06E92582F8E222FC
:0D002300E58229F582E5833AF583E4932216
:10003000EF8DF0A4A8F0CF8CF0A428CE8DF0A42EE4
:02004000FE229E
:10004200BC000BBE0029EF8DF084FFADF022E4CCA2
:10005200F875F008EF2FFFEE33FEEC33FCEE9DEC6B
:10006200984005FCEE9DFE0FD5F0E9E4CEFD22EDB1
:10007200F8F5F0EE8420D21CFEADF075F008EF2FFB
:10008200FFED33FD4007985006D5F0F222C398FDEC
:050092000FD5F0EA2289
:00000001FF
